:100000000C942A000C9434000C9434000C943400AA
:100010000C9434000C9434000C9434000C94340090
:100020000C9434000C9434000C9434000C94340080
:100030000C9434000C9434000C9434000C94340070
:100040000C9434000C9434000C9434000C94340060
:100050000C94340011241FBECFE5D8E0DEBFCDBF25
:100060000E94B7000C943A020C940000CF93DF93E7
:100070001F92CDB7DEB7198261E480E00E94AB0029
:1000800061E481E00E94AB0061E482E00E94AB0089
:1000900061E483E00E94AB0063E486E00E94A40078
:1000A000F12C00E010E0AE014F5F5F4F63E486E0AB
:1000B0000E94A8008981F81621F0882311F00F5FB3
:1000C0001F4F0930110511F401E010E00130110556
:1000D00029F461E480E00E94AF0007C005301105FB
:1000E00021F461E480E00E94B3000230110529F49C
:1000F00061E481E00E94AF0007C00630110521F4E1
:1001000061E481E00E94B3000330110529F461E449
:1001100082E00E94AF0007C00730110521F461E4BE
:1001200082E00E94B3000430110529F461E483E009
:100130000E94AF0007C00830110521F461E483E09C
:100140000E94B300F980AFCF40E00E94BC00089548
:100150000E94D201089541E00E94BC00089541E050
:100160000E944701089540E00E94470108950E94BF
:10017000360080E090E00895623459F118F461345B
:1001800041F00895633409F444C0643409F460C054
:10019000089541110EC04AB321E030E0B90102C018
:1001A000660F771F8A95E2F7CB01809584238ABB7F
:1001B0000895413009F06AC04AB321E030E0B90146
:1001C00002C0660F771F8A95E2F7CB01842B8ABBAA
:1001D000089541110EC047B321E030E0B90102C0DB
:1001E000660F771F8A95E2F7CB018095842387BB42
:1001F0000895413009F04AC047B321E030E0B90129
:1002000002C0660F771F8A95E2F7CB01842B87BB6C
:10021000089541110EC044B321E030E0B90102C09D
:10022000660F771F8A95E2F7CB018095842384BB04
:100230000895413059F544B321E030E0B90102C0DE
:10024000660F771F8A95E2F7CB01842B84BB089554
:1002500041110EC041B321E030E0B90102C0660F88
:10026000771F8A95E2F7CB018095842381BB08959F
:10027000413061F441B321E030E0B90102C0660FC2
:10028000771F8A95E2F7CB01842B81BB08956234F6
:1002900059F118F4613441F00895633409F444C00D
:1002A000643409F460C0089541110EC04BB321E0DD
:1002B00030E0B90102C0660F771F8A95E2F7CB01E3
:1002C000809584238BBB0895413009F06AC04BB3FD
:1002D00021E030E0B90102C0660F771F8A95E2F78E
:1002E000CB01842B8BBB089541110EC048B321E094
:1002F00030E0B90102C0660F771F8A95E2F7CB01A3
:100300008095842388BB0895413009F04AC048B3E2
:1003100021E030E0B90102C0660F771F8A95E2F74D
:10032000CB01842B88BB089541110EC045B321E059
:1003300030E0B90102C0660F771F8A95E2F7CB0162
:100340008095842385BB0895413059F545B321E05C
:1003500030E0B90102C0660F771F8A95E2F7CB0142
:10036000842B85BB089541110EC042B321E030E0DB
:10037000B90102C0660F771F8A95E2F7CB0180951D
:10038000842382BB0895413061F442B321E030E020
:10039000B90102C0660F771F8A95E2F7CB01842B63
:1003A00082BB0895623409F118F4613439F008957C
:1003B000633491F1643409F446C0089599B321E09F
:1003C00030E0B901082E02C0660F771F0A94E2F7E9
:1003D000292F30E026233723B90102C07595679590
:1003E0008A95E2F7FA016083089596B321E030E040
:1003F000B901082E02C0660F771F0A94E2F7292F71
:1004000030E026233723B90102C0759567958A9598
:10041000E2F7FA016083089593B321E030E0B90177
:10042000082E02C0660F771F0A94E2F7292F30E0EA
:1004300026233723B90102C0759567958A95E2F79F
:10044000FA016083089590B321E030E0B901082EED
:1004500002C0660F771F0A94E2F7292F30E02623A7
:100460003723B90102C0759567958A95E2F7FA01BD
:0804700060830895F894FFCFAA
:00000001FF
