:100000000C942A000C94B8000C943C000C943C0016
:100010000C943C000C943C000C943C000C943C0070
:100020000C943C000C943C000C943C000C943C0060
:100030000C943C000C943C000C943C000C943C0050
:100040000C943C000C943C000C943C000C943C0040
:100050000C943C0011241FBECFE5D8E0DEBFCDBF1D
:1000600020E0A0E6B0E001C01D92A136B207E1F7A2
:100070000E94E2000C9421020C94000061E480E0F4
:100080000E94D30061E481E00E94D30061E482E039
:100090000E94D30061E483E00E94D30061E480E029
:1000A0000E94D80061E481E00E94D80061E482E00F
:1000B0000E94D80061E483E00E94D80061E480E0FF
:1000C0000E94DD0061E481E00E94DD0061E482E0E5
:1000D0000E94DD0061E483E00E94DD0064E482E0D0
:1000E0000E94CE008FB780688FBF85B7836085BFC1
:1000F0008BB780648BBF80916000813029F461E40C
:1001000080E00E94D80006C0853021F461E480E0E0
:100110000E94DD0080916000823029F461E481E07A
:100120000E94D80006C0863021F461E481E00E947C
:10013000DD0080916000833029F461E482E00E9458
:10014000D80006C0873021F461E482E00E94DD001F
:1001500080916000843029F461E483E00E94D8003B
:10016000CACF883041F661E483E00E94DD00C3CF4E
:100170001F920F920FB60F9211248F9380916000FF
:100180008F5F80936000893019F481E08093600074
:100190008F910F900FBE0F901F90189540E00E9416
:1001A000E70080E0089541E00E94E70080E00895C4
:1001B00041E00E94840180E0089540E00E948401B3
:1001C00080E008950E943E0080E090E0089562344F
:1001D00069F118F4613441F08DC0633409F448C00A
:1001E000643409F466C086C041110FC04AB321E0EF
:1001F00030E0B90102C0660F771F8A95E2F7CB01A4
:10020000809584238ABB80E00895413009F074C052
:100210004AB321E030E0B90102C0660F771F8A952A
:10022000E2F7CB01842B8ABB80E0089541110FC017
:1002300047B321E030E0B90102C0660F771F8A950D
:10024000E2F7CB018095842387BB80E0089541309D
:1002500009F054C047B321E030E0B90102C0660F95
:10026000771F8A95E2F7CB01842B87BB80E0089546
:1002700041110FC044B321E030E0B90102C0660F64
:10028000771F8A95E2F7CB018095842384BB80E0B9
:1002900008954130A9F544B321E030E0B90102C02E
:1002A000660F771F8A95E2F7CB01842B84BB80E031
:1002B000089541110FC041B321E030E0B90102C0FF
:1002C000660F771F8A95E2F7CB018095842381BB67
:1002D00080E008954130B1F441B321E030E0B9014C
:1002E00002C0660F771F8A95E2F7CB01842B81BB92
:1002F00080E0089581E0089581E0089581E0089507
:1003000081E0089581E00895623469F118F4613460
:1003100041F08DC0633409F448C0643409F466C008
:1003200086C041110FC04BB321E030E0B90102C0DB
:10033000660F771F8A95E2F7CB01809584238BBBEC
:1003400080E00895413009F074C04BB321E030E003
:10035000B90102C0660F771F8A95E2F7CB01842BA3
:100360008BBB80E0089541110FC048B321E030E01D
:10037000B90102C0660F771F8A95E2F7CB0180951D
:10038000842388BB80E00895413009F054C048B30D
:1003900021E030E0B90102C0660F771F8A95E2F7CD
:1003A000CB01842B88BB80E0089541110FC045B379
:1003B00021E030E0B90102C0660F771F8A95E2F7AD
:1003C000CB018095842385BB80E008954130A9F559
:1003D00045B321E030E0B90102C0660F771F8A956E
:1003E000E2F7CB01842B85BB80E0089541110FC05B
:1003F00042B321E030E0B90102C0660F771F8A9551
:10040000E2F7CB018095842382BB80E008954130E0
:10041000B1F442B321E030E0B90102C0660F771FAA
:100420008A95E2F7CB01842B82BB80E0089581E0BE
:10043000089581E0089581E0089581E0089581E0C4
:060440000895F894FFCFBF
:00000001FF
