:100000000C942A000C9434000C9434000C943400AA
:100010000C9434000C9434000C9434000C94340090
:100020000C9434000C9434000C9434000C94340080
:100030000C9434000C9434000C9434000C94340070
:100040000C9434000C9434000C9434000C94340060
:100050000C94340011241FBECFE5D8E0DEBFCDBF25
:100060000E94BC000C9469020C940000CF93DF93B3
:100070001F92CDB7DEB7198261E480E00E94AD0027
:1000800061E481E00E94AD0061E482E00E94AD0085
:1000900061E483E00E94AD0063E486E00E94A40076
:1000A000F12C00E010E0AE014F5F5F4F63E486E0AB
:1000B0000E94A9008981F81621F0882311F00F5FB2
:1000C0001F4F0930110511F401E010E00130110556
:1000D00029F461E480E00E94B20007C005301105F8
:1000E00021F461E480E00E94B7000230110529F498
:1000F00061E481E00E94B20007C00630110521F4DE
:1001000061E481E00E94B7000330110529F461E445
:1001100082E00E94B20007C00730110521F461E4BB
:1001200082E00E94B7000430110529F461E483E005
:100130000E94B20007C00830110521F461E483E099
:100140000E94B700F980AFCF40E00E94C10080E07C
:1001500008950E94FB0180E0089541E00E94C100E3
:1001600080E0089541E00E945E0180E0089540E053
:100170000E945E0180E008950E94360080E090E0D9
:100180000895623469F118F4613441F08DC063342C
:1001900009F448C0643409F466C086C041110FC038
:1001A0004AB321E030E0B90102C0660F771F8A959B
:1001B000E2F7CB01809584238ABB80E0089541302B
:1001C00009F074C04AB321E030E0B90102C0660F03
:1001D000771F8A95E2F7CB01842B8ABB80E00895D4
:1001E00041110FC047B321E030E0B90102C0660FF2
:1001F000771F8A95E2F7CB018095842387BB80E047
:100200000895413009F054C047B321E030E0B9010E
:1002100002C0660F771F8A95E2F7CB01842B87BB5C
:1002200080E0089541110FC044B321E030E0B901EE
:1002300002C0660F771F8A95E2F7CB018095842371
:1002400084BB80E008954130A9F544B321E030E05B
:10025000B90102C0660F771F8A95E2F7CB01842BA4
:1002600084BB80E0089541110FC041B321E030E02C
:10027000B90102C0660F771F8A95E2F7CB0180951E
:10028000842381BB80E008954130B1F441B321E083
:1002900030E0B90102C0660F771F8A95E2F7CB0103
:1002A000842B81BB80E0089581E0089581E008956A
:1002B00081E0089581E0089581E00895623469F154
:1002C00018F4613441F08DC0633409F448C06434DB
:1002D00009F466C086C041110FC04BB321E030E085
:1002E000B90102C0660F771F8A95E2F7CB018095AE
:1002F00084238BBB80E00895413009F074C04BB378
:1003000021E030E0B90102C0660F771F8A95E2F75D
:10031000CB01842B8BBB80E0089541110FC048B303
:1003200021E030E0B90102C0660F771F8A95E2F73D
:10033000CB018095842388BB80E00895413009F08B
:1003400054C048B321E030E0B90102C0660F771F06
:100350008A95E2F7CB01842B88BB80E00895411198
:100360000FC045B321E030E0B90102C0660F771F2E
:100370008A95E2F7CB018095842385BB80E00895C0
:100380004130A9F545B321E030E0B90102C0660F64
:10039000771F8A95E2F7CB01842B85BB80E0089517
:1003A00041110FC042B321E030E0B90102C0660F35
:1003B000771F8A95E2F7CB018095842382BB80E08A
:1003C00008954130B1F442B321E030E0B90102C0F8
:1003D000660F771F8A95E2F7CB01842B82BB80E002
:1003E000089581E0089581E0089581E0089581E015
:1003F000089581E00895623411F118F4613439F000
:1004000066C06334A1F1643409F449C060C099B393
:1004100021E030E0B901082E02C0660F771F0A9470
:10042000E2F7292F30E026233723B90102C0759562
:1004300067958A95E2F7FA01608380E0089596B3A4
:1004400021E030E0B901082E02C0660F771F0A9440
:10045000E2F7292F30E026233723B90102C0759532
:1004600067958A95E2F7FA01608380E0089593B377
:1004700021E030E0B901082E02C0660F771F0A9410
:10048000E2F7292F30E026233723B90102C0759502
:1004900067958A95E2F7FA01608380E0089590B34A
:1004A00021E030E0B901082E02C0660F771F0A94E0
:1004B000E2F7292F30E026233723B90102C07595D2
:1004C00067958A95E2F7FA01608380E0089581E0FC
:0604D0000895F894FFCF2F
:00000001FF
